:100000000C9462000C948A000C948A000C948A0070
:100010000C948A000C948A000C948A000C948A0038
:100020000C948A000C948A000C948A000C94E005CD
:100030000C948A000C948A000C948A000C948A0018
:100040000C9496050C948A000C948A000C948A00F7
:100050000C948A000C948A000C948A000C948A00F8
:100060000C948A000C948A000000000024002700F1
:100070002A0000000000250028002B0000000008D6
:10008000000201000003040700000000000000005F
:1000900000000000230026002900040404040404D6
:1000A0000404020202020202030303030303010227
:1000B00004081020408001020408102001020408F6
:1000C0001020050811241FBECFEFD8E0DEBFCDBF42
:1000D00011E0A0E0B1E0E0E6F1E102C005900D9290
:1000E000A03DB107D9F722E0A0EDB1E001C01D921B
:1000F000AD38B207E1F710E0C2E6D0E004C02197C6
:10010000FE010E949F08C136D107C9F70E948906E7
:100110000C94AE080C94000096E0899FD001112445
:10012000AA5FBD4F90967C936E935F9791E09196F6
:100130009C939197E0917302F091740290917202F6
:10014000992339F0309751F0811108C08091220233
:100150000994309719F05C968C91FACF0895CF925C
:10016000DF92EF92FF920F931F9396E0899FF00129
:100170001124EA5FFD4F11A2278D30A121303105F6
:1001800051F178F02230310509F451C023303105A6
:1001900009F452C01F910F91FF90EF90DF90CF9024
:1001A00008956623B9F361E070E00E948C002FB7D8
:1001B000F8948091020290910302A0910402B09100
:1001C00005022FBF80935E0290935F02A0936002AE
:1001D000B0936102DFCF9FB7F894C0900202D09035
:1001E0000302E0900402F09005029FBF00915E02BE
:1001F00010915F022091600230916102C01AD10A11
:10020000E20AF30A009170021091710230E020E0DE
:100210000C151D052E053F0550F462E070E01F919E
:100220000F91FF90EF90DF90CF900C948C006111B4
:10023000B1CF63E070E0F3CF70E060E0F0CFAF9259
:10024000BF92CF92DF92EF92FF920F931F93CF93C3
:10025000DF936C017B018B01040F151FEB015E0125
:10026000AE18BF08C017D10759F06991D601ED91BA
:10027000FC910190F081E02DC6010995892B79F759
:10028000C501DF91CF911F910F91FF90EF90DF900B
:10029000CF90BF90AF900895833081F028F48130E3
:1002A00099F08230A9F008958730A9F08830C9F01C
:1002B0008430B1F4809180008F7D03C080918000F4
:1002C0008F7780938000089584B58F7784BD0895DB
:1002D00084B58F7DFBCF8091B0008F778093B00085
:1002E00008958091B0008F7DF9CFCF93DF93282FB1
:1002F00030E0F901E458FF4F8491F901E255FF4FD6
:10030000D491F901E656FF4FC491CC23A1F081119D
:100310000E944C01EC2FF0E0EE0FFF1FE057FF4F63
:10032000A591B491EC91ED2381E090E009F480E097
:10033000DF91CF91089580E090E0FACF862F0C9462
:1003400075011F93CF93DF93282F30E0F901E45814
:10035000FF4F8491F901E255FF4FD491F901E65620
:10036000FF4FC491CC23A9F0162F81110E944C019C
:10037000EC2FF0E0EE0FFF1FEE58FF4FA591B49168
:100380008FB7F894EC91111108C0D095DE23DC935F
:100390008FBFDF91CF911F910895DE2BF8CF862F6D
:1003A000642F0C94A101CF93DF9390E0FC01E25500
:1003B000FF4F249186569F4FFC0184918823C9F0FA
:1003C00090E0880F991FFC01E859FF4FA591B49167
:1003D000FC01EE58FF4FC591D49161110DC09FB73C
:1003E000F8948C91209582238C93888128232883EC
:1003F0009FBFDF91CF910895623051F49FB7F89479
:100400003C91822F809583238C93E8812E2BEFCF14
:100410008FB7F894EC912E2B2C938FBFEACF862FB9
:10042000642F0C94D3016F927F928F929F92AF9220
:10043000BF92CF92DF92EF92FF920F931F93CF93D1
:10044000DF9381E0809372028FB7F89440910202AB
:100450005091030260910402709105028FBF809158
:10046000620290916302A0916402B0916502481B00
:10047000590B6A0B7B0B80916E0290916F02B0E07A
:10048000A0E084179507A607B70708F01DC1C0E0D4
:1004900080916C02C81760F4E0916802F0916902E3
:1004A000EC0FF11D62E080810E94D301CF5FF0CF9D
:1004B000712C812C912C5401839480916D027816BB
:1004C00008F05FC0072D10E0E0916A02F0916B0226
:1004D000E00FF11F61E080810E94D301E0916A0288
:1004E000F0916B02E00FF11F60E080810E94A1019A
:1004F000D501C401072C04C0880F991FAA1FBB1F78
:100500000A94D2F76C017C01E094F094612C809104
:100510006C026816F8F4C62DD0E0E0916802F09104
:100520006902EC0FFD1F80810E9475012496CC0F9B
:10053000DD1FCA5FDD4F892B41F4888199818C29A9
:100540009D29998388836394E2CF888199818E2144
:100550009F21F7CFE0916A02F0916B02E00FF11F4B
:1005600061E080810E94A10180916A0290916B02FA
:10057000080F191F60E0F80180810E94D301739475
:100580009CCFC6E0D2E0FE018FEF9FEF278D30A118
:10059000232B21F4148E968F858F11A2369622E09C
:1005A000E234F20799F7F12C96E0D92E80916C0293
:1005B000F81608F050C0E12C0F2D10E0000F111FAD
:1005C000025F1D4F20916D02E21608F042C0F80153
:1005D000608171810E2C02C0769567950A94E2F7CE
:1005E000F29E900111242E0D311DE6E0F2E080E034
:1005F000458D568D2417350709F46AC08F5F3696EE
:100600008A30B1F760FF23C0E6E0F2E090E080E0DE
:10061000448D411117C0E0916602F0916702E20F2C
:10062000F31F4081D89EF001D99EF00D1124EA5F9E
:10063000FD4F448F368F258F10A2178E61E00E94E8
:10064000AF0005C0019636968A30910509F7E3940C
:10065000B9CFF394ABCF80E099A19111892F269661
:10066000F2E0C234DF07C1F79FB7F894409102026D
:100670005091030260910402709105029FBF409364
:100680006202509363026093640270936502882350
:10069000D9F0809127028823B9F0809125029091AA
:1006A0002602019789F480912202DF91CF911F9158
:1006B0000F91FF90EF90DF90CF90BF90AF909F9001
:1006C0008F907F906F9008951092720280E0EDCF2E
:1006D0006170B5CF3FB7F8948091F6019091F70122
:1006E000A091F801B091F90126B5A89B05C02F3F54
:1006F00019F00196A11DB11D3FBFBA2FA92F982F48
:100700008827BC01CD01620F711D811D911D42E042
:10071000660F771F881F991F4A95D1F708958F920A
:100720009F92AF92BF92CF92DF92EF92FF924B01D6
:100730005C010E946A036B017C010E946A036C19D0
:100740007D098E099F09683E734081059105A8F3D4
:1007500021E0821A9108A108B10888EEC80E83E052
:10076000D81EE11CF11C81149104A104B10429F7E5
:10077000FF90EF90DF90CF90BF90AF909F908F90C1
:100780000895089590E080E008958F929F92AF922F
:10079000BF920F931F93CF93DF93CDB7DEB7A1978F
:1007A0000FB6F894DEBF0FBECDBF19A2423008F4D9
:1007B0004AE08E010F5D1F4F842E912CB12CA12C8D
:1007C000A50194010E947D08E62FB901CA01EA3013
:1007D00044F5E05DD801EE938D01232B242B252BCE
:1007E00079F790E080E0109769F0FD01019000201A
:1007F000E9F73197AF014A1B5B0BBD0185E792E03A
:100800000E941F01A1960FB6F894DEBF0FBECDBFA8
:10081000DF91CF911F910F91BF90AF909F908F90DC
:100820000895E95CD7CFFC0101900020E9F73197EA
:10083000AF01481B590BBC0185E792E00C941F01E6
:10084000CF93DF93EC0160E08E810E94A10161E013
:100850008E810E94A10160E08E810E94A1018BE83F
:1008600091E00197F1F7DF91CF910895CF92DF9258
:10087000EF92FF920F931F93CF93DF936C017C0154
:1008800087E0E80EF11CD0E0C0E0062F10E0B801D0
:100890000C2E02C0759567950A94E2F76170F70116
:1008A00081917F010E94A1012196C430D10579F781
:1008B000C601DF91CF911F910F91FF90EF90DF90D4
:1008C000CF900C942004CF92DF92EF92FF920F937F
:1008D0001F93CF93DF93EC01F62E642F8C810E943F
:1008E000A1018D818F3F19F060E00E94A1010F2DC1
:1008F00010E08F8584FF25C06E0187E0C80ED11CF3
:10090000F12CE12CB8010E2C02C0759567950A9464
:10091000E2F76170F60181916F010E94A101FFEF82
:10092000EF1AFF0A88E0E816F10461F7CE01DF91C3
:10093000CF911F910F91FF90EF90DF90CF900C948B
:100940002004B80184E0759567958A95E1F7CE019A
:100950000E9436046F2DCE01DF91CF911F910F9130
:10096000FF90EF90DF90CF900C94360440E0682F1A
:1009700085E792E00C94630481E00E94B6048BE367
:100980009FE10197F1F70895CF93DF93823029F427
:1009900090918402986090938402809388021092D0
:1009A000890280E480938A0280E180938B0280E553
:1009B00080938C0261E0809179020E94D301809142
:1009C0007A028F3F19F061E00E94D30161E08091CB
:1009D0007B020E94D301C5E7D2E09E012557324039
:1009E0008091840284FD0BC084E090E0219628175A
:1009F000390744F461E08E810E94D301EECF88E094
:100A000090E0F4CF8BE39DE00197F1F760E08091F7
:100A100079020E94A10160E080917B020E94A10105
:100A200080917A028F3F19F060E00E94A1018091CD
:100A3000840284FD34C063E085E792E00E943604BE
:100A4000CBE4D6E4CE010197F1F763E085E792E0CD
:100A50000E9436042197F1F763E085E792E00E9457
:100A6000360483E592E00197F1F762E085E792E0D2
:100A70000E9436048091840280620E94B60484E061
:100A8000809385028CE00E94B6040E94BC0482E040
:100A90008093860286E0DF91CF910C94B604806249
:100AA0000E94B6048BE496E40197F1F780918402EA
:100AB00080620E94B60483E592E00197F1F780918D
:100AC000840280620E94B604D5CF90918802691793
:100AD00010F06FEF690FE62FF0E0EB58FD4F9489AF
:100AE000890F80680C94B60441E00E94630481E0A1
:100AF00090E00895CF92DF92EF92FF926B017C011C
:100B000041E06DE285E792E00E9463046627772763
:100B1000CB016C197D098E099F094AE00E94C5032B
:100B20000196FF90EF90DF90CF9008951F920F9263
:100B30000FB60F9211242F933F938F939F93AF93F0
:100B4000BF938091020290910302A0910402B091A0
:100B500005023091F50123E0230F2D3758F501965A
:100B6000A11DB11D2093F501809302029093030211
:100B7000A0930402B09305028091F6019091F701D1
:100B8000A091F801B091F9010196A11DB11D8093CA
:100B9000F6019093F701A093F801B093F901BF918A
:100BA000AF919F918F913F912F910F900FBE0F901A
:100BB0001F90189526E8230F0296A11DB11DD2CFD4
:100BC0001F920F920FB60F9211242F933F938F9382
:100BD0009F93EF93FF938091F40187FF1FC01092C2
:100BE0008500109284008091F4018F5F8093F4015E
:100BF0008091F40187FF04C08091F4018C30ACF047
:100C00008091840090918500049680349C4990F1F5
:100C1000809184009091850004962EC08091F4010B
:100C200087FFE1CF8091F401DECF209184003091E5
:100C30008500E091F4018E2FEE0F990BFC01EE0F71
:100C4000FF1FE80FF91FE053FE4F81819281820F51
:100C5000931F90938900809388008091F401FF9105
:100C6000EF919F918F913F912F910F900FBE0F9019
:100C70001F90189580E49CE99093890080938800E8
:100C80008FEF8093F401EBCFCF92DF92EF92FF9240
:100C90000F931F93E82FF92F05C001501109210967
:100CA000310961F1908196239417B9F305C0015081
:100CB00011092109310911F1908196239413F7CF7D
:100CC000C12CD12CE12CF12C0AC08FEFC81AD80A04
:100CD000E80AF80A0C151D052E053F0579F08081FC
:100CE0008623841791F36C2D7D2D8E2D9F2D1F91C2
:100CF0000F91FF90EF90DF90CF90089560E070E04B
:100D000080E090E01F910F91FF90EF90DF90CF90E7
:100D10000895789484B5826084BD84B5816084BD73
:100D200085B5826085BD85B5816085BD80916E0089
:100D3000816080936E0010928100809181008260BA
:100D400080938100809181008160809381008091F7
:100D500080008160809380008091B10084608093E6
:100D6000B1008091B00081608093B00080917A00E2
:100D7000846080937A0080917A00826080937A0008
:100D800080917A00816080937A0080917A008068F7
:100D900080937A001092C10082E00E94C40481E333
:100DA00091E00E94130461E080E00E9465058EE3FB
:100DB00091E00E94130468EE73E080E090E00E94EE
:100DC0008F030E94BC0460E080E00E94650582E51C
:100DD00091E00E94130461E080E00E94650581E6D5
:100DE00091E00E94130468EE73E080E090E00E94BE
:100DF0008F030E94BC0460E080E00E94D30161E0A8
:100E00008AE00E94D30161E088E00E94D30160E0A3
:100E100089E00E94D30193E0E92EF12C23E2C22E57
:100E2000D12C3AE3832E912CA12CB12C40E0242E1E
:100E300040E0342E80911A01811195C068EE73E074
:100E400080E090E00E948F0380E00E947501EC0139
:100E5000892B09F083C061E08AE00E94A1010E9411
:100E6000BC0461E088E00E94D30160E088E00E9459
:100E7000A101C7010197F1F761E088E00E94A1019B
:100E8000C6010197F1F760E088E00E94A101E7EB5D
:100E9000F0E06491E3EAF0E08491E82FF0E0EE0FF7
:100EA000FF1FE057FF4F8591949100E412E42FE07B
:100EB00030E0462F0E9444066115710581059105B9
:100EC00029F06F5F7F4F8F4F9F4F9F70A501940157
:100ED0000E947D0829013A0186E791E00E941304EF
:100EE0004AE0C301B2010E94C50381E891E00E947B
:100EF0001304F2E34F1651046104710410F0C4E6C8
:100F0000D0E061E080E00E94650585E891E00E9404
:100F10001304BE01DD0F880B990B4AE00E94C50344
:100F20008DE891E00E9413040E9413028A3279F442
:100F30000E94BC0480E991E00E94130468EB7BE00E
:100F400080E090E00E948F0381E080931A012114D9
:100F5000310409F46FCF0E9400006CCF60E08AE09A
:100F60000E94A101E1CF60E080E00E9465058FE969
:100F700091E00E9413040E9413028823A1F0709054
:100F80000102C72DD0E0C650DE4F888361E0872D77
:100F90000E94650541E0688185E792E00E94630454
:100FA00073947092010280910102863081F663E1B0
:100FB00071E08AEF91E00E94A508892B99F40E94C4
:100FC000BC048FEA91E00E94130410921A018091F0
:100FD0000102E82FF0E0E550FE4F882399F08150A0
:100FE0001292FBCF0E94BC048FEB91E00E9413048D
:100FF00068EE73E080E090E00E948F03E1E0E09310
:101000001A01E5CF10920102A2CF1092780210923D
:10101000770289E291E090937602809375028EE0E8
:10102000809379028FEF80937A028FE080937B0226
:1010300080E180937C0281E180937D0282E1809354
:101040007E0283E180937F021092800210928102DF
:1010500010928202109283021092840281E00E9418
:10106000C4041092080210920C0210920B0210920B
:101070000D028FE191E09093070280930602E2E275
:10108000F2E01082148213821582369682E0EE35E9
:10109000F807B9F783E091E09093690280936802C2
:1010A00080E091E090936B0280936A0284E08093E9
:1010B0006C0283E080936D0287E091E09093670279
:1010C000809366028AE090E090936F0280936E02B4
:1010D00084EF91E0909371028093700210927402F9
:1010E00010927302109262021092630210926402D4
:1010F00010926502109272020895A1E21A2EAA1BA4
:10110000BB1BFD010DC0AA1FBB1FEE1FFF1FA217B7
:10111000B307E407F50720F0A21BB30BE40BF50BB4
:10112000661F771F881F991F1A9469F7609570953D
:10113000809590959B01AC01BD01CF010895EE0F04
:10114000FF1F0590F491E02D0994FB01DC018D91C6
:10115000019080190110D9F3990B0895F894FFCFED
:101160000506070102030431323334353637383986
:101170002A30233134373235380001000000000FA7
:1011800002CF019E010000000074051F01C203C1CF
:1011900003526F626F74696373204C6162002D2D7E
:1011A0002D2D4361722053656375726974792D2DFD
:1011B0002D002052657A6120476861646972692058
:1011C00000205365706568722042617961746E65B4
:1011D0007A686164200064697374616E63653A20A3
:1011E0000020636D0073706565643A20006B6D00CC
:1011F00020436172206973206C6F636B656400200B
:10120000456E7465722050617373776F726400204D
:1012100020436172206973204F70656E202000208A
:1012200057726F6E672050617373776F726420001E
:00000001FF
